:100000000C9433000C94D4000C9450000C945000C9
:100010000C9450000C9450000C9450000C94500020
:100020000C9450000C9450000C9450000C94500010
:100030000C9450000C9450000C9450000C94500000
:100040000C9450000C9450000C9450000C945000F0
:100050000C945000B601E901FC0134025F029202E7
:10006000BD02E502090311241FBECFE5D8E0DEBFC3
:10007000CDBF10E0A0E6B0E0EAE5F8E002C00590F0
:100080000D92A037B107D9F720E0A0E7B0E001C09A
:100090001D92A137B207E1F70E946D010C942B0469
:1000A0000C9400005F9BFECF8CB108955D9BFECF4A
:1000B0008CB90895CF930E945200C82F0E9452001D
:1000C0002C2F30E0322F2227A901482BCA01CF91D3
:1000D0000895CF93C82F892F0E9456008C2FCF915F
:1000E0000C9456006F927F928F929F92AF92BF9224
:1000F000CF92DF92EF92FF920F931F93CF93DF93F4
:10010000CDB7DEB727970FB6F894DEBF0FBECDBFD1
:100110005C014B013A018CE0E82E80E0F82E00E013
:1001200010E0680147E050E0B701CE0101960E945F
:10013000FA038F818A3AB1F489819A818A159B05E5
:1001400089F48B819C818815990561F4611471048F
:10015000A9F087E0FE013196D30101900D928A95B6
:10016000E1F70CC00F5F1F4F87E0E80EF11C043071
:100170001105B9F6CC24CA94DD24DA94C601279679
:100180000FB6F894DEBF0FBECDBFDF91CF911F91A8
:100190000F91FF90EF90DF90CF90BF90AF909F9026
:1001A0008F907F906F9008951F920F920FB60F92CD
:1001B00011248F93809170008F5F83708093700003
:1001C0008F910F900FBE0F901F9018954F925F92D6
:1001D0006F927F928F929F92AF92BF92CF92DF9257
:1001E000EF92FF92CF93DF93EB012A01413051054B
:1001F00069F1BA010E94A4034C01A12CB12CC12CBD
:10020000D12C7601C394612C712C2097E9F0C0FFAA
:100210000CC0A7019601C501B4010E949403A3017B
:1002200092010E94B8036B017C01D695C795A50188
:100230009401C501B4010E949403A30192010E949C
:10024000B8034B015C01E1CFC60102C080E090E041
:10025000DF91CF91FF90EF90DF90CF90BF90AF9064
:100260009F908F907F906F905F904F900895EF9246
:10027000FF920F931F93FC0100E010E098018FEFB5
:100280009FEF0417150726073707B1F0A1919A27AA
:10029000A8E07C01EE0CFF1C97FF06C0C701B1E28D
:1002A0008B27B0E19B2701C0C701A15091F70F5FD9
:1002B0001F4F2F4F3F4FE5CF1F910F91FF90EF90B2
:1002C0000895E0EFDEE6D3950000E9F70000E3953E
:1002D000D1F70000000000000895CF93DF93CDB761
:1002E000DEB768970FB6F894DEBF0FBECDBF10BC67
:1002F00083E389B988E18AB986E880BD8FEF84BB42
:100300008AB38F608ABB8BB38F608BBB8A98929ABB
:1003100085B7826085BF85B78E7F85BF8BB78064C8
:100320008BBF78948E010F5F1F4F28EE422E23E083
:10033000522E612C712C3FE0332E5F9B7BC10E94BB
:100340005200F82E4CE050E060E070E0CE010D96D7
:100350000E94FA038F2D90E0FC013197E930F105FE
:1003600008F065C1E65DFF4F0C94DA030E945A0065
:100370004C010E945A005C010E945A007C019CE0E2
:10038000C92E90E0D92E212C47E050E0B601C801DB
:100390000E94FA038F818A3A99F09A828982BC82FC
:1003A000AB82FE82ED828AEA8F8347E050E0B6019D
:1003B000C8010E940A0480E00E945600822D38C1C4
:1003C000239427E0C20ED11C84E02812DDCF83EEF7
:1003D0002FC10E945200843008F0B9C097E0D801C4
:1003E000E92F1D92EA95E9F7989FB0011124645F07
:1003F0007F4F47E050E016C180E00E9456008CE03D
:10040000E82E80E0F82E6701B12C47E050E0B601FD
:10041000C8010E94FA038F818A3A09F4B394F7E085
:10042000CF0ED11C88E290E08C159D0571F78B2DC5
:100430000E94560047E050E0B701C8010E94FA034D
:100440008F818A3A41F489819A810E9469008B8167
:100450009C810E94690097E0E90EF11CA8E2B0E0DF
:10046000AE15BF0539F7E6C00E945A004C010E9444
:100470005A005C010E945A007C0180E00E945600F4
:10048000C12CD12CEC14FD0469F00E945200A4018F
:10049000B50190E00E94E6000E946900BFEFCB1A10
:1004A000DB0AF0CF8D859E85AF85B8898E0D9F1DA7
:1004B000A11DB11D8D879E87AF87B88B7DC00E941F
:1004C0005A006C010E945A005C010E945A007C0193
:1004D000A801B501C6010E94720097FD33C080E0FB
:1004E0000E945600C12CD12CEC14FD0471F00E9426
:1004F0005A0049815A816D817E810E94E6000E94E6
:100500005600EFEFCE1ADE0AEFCF89899A89AB89C0
:10051000BC898E0D9F1DA11DB11D898B9A8BAB8B44
:10052000BC8B4AC00E945A006C010E945A005C01B8
:100530000E945A007C01A801B501C6010E94720008
:1005400097FF02C081EE74C0EC14FD0410F082EE3F
:100550006FC049815A816D817E81C7010E94E6008A
:100560007C0180E00E945600C7010E9469008D89CD
:100570009E8901969E8B8D8B1FC00E945A005C0144
:100580000E945A007C010E945A006C010E945A008D
:10059000A501B7010E94E6007C0180E00E945600A0
:1005A00081E0CE14DF0409F080E00E9456008F89BC
:1005B000988D0196988F8F8B4CE050E060E070E052
:1005C000CE010D960E940A0435C080E00E945600BC
:1005D00088890E9456008F850E9456008E850E9451
:1005E00056008D850E9456008C890E9456008B898A
:1005F0000E9456008A890E94560089890E945600EE
:100600008D899E890E9469008F89988D0E9469005A
:1006100011C0D801ECE01D92EA95E9F74CE050E0FA
:1006200060E070E0C8010E940A0480E001C08FEE23
:100630000E9456004CE050E060E070E0C8010E946B
:10064000FA03809170008130B9F058F08230F9F4EB
:1006500089859A8568EE73E00E94A4039C01ECE012
:100660001EC069817A818B819C81A30192010E94C5
:10067000B8039B01EAE013C06D817E818F8198856C
:10068000A30192010E94B8039B01EBE008C08B8597
:100690009C8568EE73E00E94A4039C01EDE0C90113
:1006A00064E670E00E94A4036D87C9016AE070E00F
:1006B0000E94A403282FCB016AE070E00E94A403EB
:1006C0008E872F87F0E0E05AFF4F8081806885BBDE
:1006D0008BB3807F8E608BBB0E946101CE010D9633
:1006E0007C01C12CD12CD701ED917D01BFEFCB1A3C
:1006F000DB0AF0E0E05AFF4F808185BB8BB321E03D
:1007000030E00C2C01C0220F0A94EAF72325807FE9
:10071000822B8BBB0E946101E3E0CE16D10419F756
:100720008BB38F608BBB09CEDB018F939F930E94AD
:10073000E003BF91AF91A29F800D911DA39F900DEB
:10074000B29F900D11240895AA1BBB1B51E107C055
:10075000AA1FBB1FA617B70710F0A61BB70B881F51
:10076000991F5A95A9F780959095BC01CD010895E0
:10077000A1E21A2EAA1BBB1BFD010DC0AA1FBB1FA5
:10078000EE1FFF1FA217B307E407F50720F0A21B17
:10079000B30BE40BF50B661F771F881F991F1A9484
:1007A00069F760957095809590959B01AC01BD01AE
:1007B000CF010895EE0FFF1F0590F491E02D0994ED
:1007C0000E94EB03A59F900DB49F900DA49F800DF8
:1007D000911D11240895A29FB001B39FC001A39F52
:1007E000700D811D1124911DB29F700D811D11246A
:1007F000911D0895DC01CB01FC01E199FECF06C0FB
:10080000FFBBEEBBE09A31960DB20D9241505040C5
:10081000B8F70895DC01A40FB51F4150504048F0CF
:10082000CB01840F951F2E910E941B044150504014
:10083000D0F70895262FE199FECF9FBB8EBBE09A9B
:1008400001970DB2021631F02DBB0FB6F894E29A63
:0A085000E19A0FBE0895F894FFCF5F
:10085A003F065B4F666D7D077F6F795E6D390000DD
:00000001FF
