:020000020000FC
:02000000E3C05B
:0200040089C0B1
:0200080094C0A2
:100080008F939F93AF938AE090E0A0E0AA95F1F759
:100090009A95D9F78A95C1F7AF919F918F9108955D
:1000A000603011F4EDDF0895613019F4E9DFE8DF25
:1000B0000895E6DFE5DFE4DFE3DF08958F939F93A4
:1000C000AF9385E090E0A0E0AA95F1F79A95D9F773
:1000D0008A95C1F7AF919F918F910895E199FECFD5
:1000E0000895FCDF00270FBB1EBBE09A0DB30895F7
:1000F000F5DF0F9300270FBB1EBB0F910DBBF894CC
:10010000E29AE19A78940895052F10E0F1DF0895BE
:10011000062F11E0EDDF08950F930FB70F9353955E
:10012000052F043009F45DEF71600F910FBF0F913F
:1001300018950F930FB70F936395633008F06627F8
:1001400072600F910FBF0F911895322F00E8302782
:100150000895032F122F8F93842F803031F0000FDA
:10016000111F08F401608A95D1F78F9108951F93AC
:100170000CE8162F1370012B152F17FD1195137016
:1001800012951073012B57FD006402BB1F91089557
:10019000879910C003B300950030D1F38FDF8799A2
:1001A00009C023B32095D1DF879904C003B300951C
:1001B0000030D1F7089570FF02C0A6DF7E7F71FF87
:1001C00002C0A6DF7D7F089508E00EBF0FE50DBFDA
:1001D0000FEF0ABB07BB002704BB0FEF05BB03E70C
:1001E00001BB0CE802BB4427772723E7AEDF12E010
:1001F00078DF053A41F051E0662786DF89DF05EABE
:1002000012E076DF09C010E06CDF502F11E069DFEB
:10021000602F633008F066270AE005BF00EC0BBFD3
:100220000ABF7894C8DF879B08C093DF0BBB18BB5D
:0E0230009EDF36DF450F4F70F5CFAADFF3CF0C
:00000001FF
